{
  "_format": "hh-sol-artifact-1",
  "contractName": "MataToken",
  "sourceName": "contracts/MataToken.sol",
  "abi": [
    {
      "inputs": [],
      "stateMutability": "nonpayable",
      "type": "constructor"
    },
    {
      "anonymous": false,
      "inputs": [
        {
          "indexed": true,
          "internalType": "address",
          "name": "account",
          "type": "address"
        },
        {
          "indexed": false,
          "internalType": "bool",
          "name": "isAdmin",
          "type": "bool"
        }
      ],
      "name": "AdministratorUpdated",
      "type": "event"
    },
    {
      "anonymous": false,
      "inputs": [
        {
          "indexed": true,
          "internalType": "address",
          "name": "owner",
          "type": "address"
        },
        {
          "indexed": true,
          "internalType": "address",
          "name": "spender",
          "type": "address"
        },
        {
          "indexed": false,
          "internalType": "uint256",
          "name": "value",
          "type": "uint256"
        }
      ],
      "name": "Approval",
      "type": "event"
    },
    {
      "anonymous": false,
      "inputs": [
        {
          "indexed": true,
          "internalType": "address",
          "name": "account",
          "type": "address"
        },
        {
          "indexed": false,
          "internalType": "bool",
          "name": "value",
          "type": "bool"
        }
      ],
      "name": "Blacklisted",
      "type": "event"
    },
    {
      "anonymous": false,
      "inputs": [
        {
          "indexed": false,
          "internalType": "uint256",
          "name": "amount",
          "type": "uint256"
        }
      ],
      "name": "MaxTransferAmountUpdated",
      "type": "event"
    },
    {
      "anonymous": false,
      "inputs": [
        {
          "indexed": false,
          "internalType": "address",
          "name": "account",
          "type": "address"
        }
      ],
      "name": "Paused",
      "type": "event"
    },
    {
      "anonymous": false,
      "inputs": [
        {
          "indexed": true,
          "internalType": "address",
          "name": "from",
          "type": "address"
        },
        {
          "indexed": true,
          "internalType": "address",
          "name": "to",
          "type": "address"
        },
        {
          "indexed": false,
          "internalType": "uint256",
          "name": "amount",
          "type": "uint256"
        }
      ],
      "name": "TaxCollected",
      "type": "event"
    },
    {
      "anonymous": false,
      "inputs": [
        {
          "indexed": true,
          "internalType": "address",
          "name": "from",
          "type": "address"
        },
        {
          "indexed": true,
          "internalType": "address",
          "name": "to",
          "type": "address"
        },
        {
          "indexed": false,
          "internalType": "uint256",
          "name": "value",
          "type": "uint256"
        }
      ],
      "name": "Transfer",
      "type": "event"
    },
    {
      "anonymous": false,
      "inputs": [
        {
          "indexed": false,
          "internalType": "uint256",
          "name": "newRate",
          "type": "uint256"
        }
      ],
      "name": "TransferTaxRateUpdated",
      "type": "event"
    },
    {
      "anonymous": false,
      "inputs": [
        {
          "indexed": true,
          "internalType": "address",
          "name": "newWallet",
          "type": "address"
        }
      ],
      "name": "TreasuryWalletUpdated",
      "type": "event"
    },
    {
      "anonymous": false,
      "inputs": [
        {
          "indexed": false,
          "internalType": "address",
          "name": "account",
          "type": "address"
        }
      ],
      "name": "Unpaused",
      "type": "event"
    },
    {
      "inputs": [
        {
          "internalType": "address",
          "name": "",
          "type": "address"
        }
      ],
      "name": "administrators",
      "outputs": [
        {
          "internalType": "bool",
          "name": "",
          "type": "bool"
        }
      ],
      "stateMutability": "view",
      "type": "function"
    },
    {
      "inputs": [
        {
          "internalType": "address",
          "name": "owner",
          "type": "address"
        },
        {
          "internalType": "address",
          "name": "spender",
          "type": "address"
        }
      ],
      "name": "allowance",
      "outputs": [
        {
          "internalType": "uint256",
          "name": "",
          "type": "uint256"
        }
      ],
      "stateMutability": "view",
      "type": "function"
    },
    {
      "inputs": [
        {
          "internalType": "address",
          "name": "spender",
          "type": "address"
        },
        {
          "internalType": "uint256",
          "name": "amount",
          "type": "uint256"
        }
      ],
      "name": "approve",
      "outputs": [
        {
          "internalType": "bool",
          "name": "",
          "type": "bool"
        }
      ],
      "stateMutability": "nonpayable",
      "type": "function"
    },
    {
      "inputs": [
        {
          "internalType": "address",
          "name": "account",
          "type": "address"
        }
      ],
      "name": "balanceOf",
      "outputs": [
        {
          "internalType": "uint256",
          "name": "",
          "type": "uint256"
        }
      ],
      "stateMutability": "view",
      "type": "function"
    },
    {
      "inputs": [
        {
          "internalType": "address[]",
          "name": "recipients",
          "type": "address[]"
        },
        {
          "internalType": "uint256[]",
          "name": "amounts",
          "type": "uint256[]"
        }
      ],
      "name": "batchTransfer",
      "outputs": [],
      "stateMutability": "nonpayable",
      "type": "function"
    },
    {
      "inputs": [
        {
          "internalType": "uint256",
          "name": "amount",
          "type": "uint256"
        }
      ],
      "name": "burn",
      "outputs": [],
      "stateMutability": "nonpayable",
      "type": "function"
    },
    {
      "inputs": [
        {
          "internalType": "address",
          "name": "account",
          "type": "address"
        },
        {
          "internalType": "uint256",
          "name": "amount",
          "type": "uint256"
        }
      ],
      "name": "burnFrom",
      "outputs": [],
      "stateMutability": "nonpayable",
      "type": "function"
    },
    {
      "inputs": [],
      "name": "decimals",
      "outputs": [
        {
          "internalType": "uint8",
          "name": "",
          "type": "uint8"
        }
      ],
      "stateMutability": "view",
      "type": "function"
    },
    {
      "inputs": [
        {
          "internalType": "address",
          "name": "spender",
          "type": "address"
        },
        {
          "internalType": "uint256",
          "name": "subtractedValue",
          "type": "uint256"
        }
      ],
      "name": "decreaseAllowance",
      "outputs": [
        {
          "internalType": "bool",
          "name": "",
          "type": "bool"
        }
      ],
      "stateMutability": "nonpayable",
      "type": "function"
    },
    {
      "inputs": [],
      "name": "deployer",
      "outputs": [
        {
          "internalType": "address",
          "name": "",
          "type": "address"
        }
      ],
      "stateMutability": "view",
      "type": "function"
    },
    {
      "inputs": [],
      "name": "getMaxTransferAmount",
      "outputs": [
        {
          "internalType": "uint256",
          "name": "",
          "type": "uint256"
        }
      ],
      "stateMutability": "view",
      "type": "function"
    },
    {
      "inputs": [],
      "name": "getTransferTaxRate",
      "outputs": [
        {
          "internalType": "uint256",
          "name": "",
          "type": "uint256"
        }
      ],
      "stateMutability": "view",
      "type": "function"
    },
    {
      "inputs": [],
      "name": "getTreasuryWallet",
      "outputs": [
        {
          "internalType": "address",
          "name": "",
          "type": "address"
        }
      ],
      "stateMutability": "view",
      "type": "function"
    },
    {
      "inputs": [
        {
          "internalType": "address",
          "name": "spender",
          "type": "address"
        },
        {
          "internalType": "uint256",
          "name": "addedValue",
          "type": "uint256"
        }
      ],
      "name": "increaseAllowance",
      "outputs": [
        {
          "internalType": "bool",
          "name": "",
          "type": "bool"
        }
      ],
      "stateMutability": "nonpayable",
      "type": "function"
    },
    {
      "inputs": [
        {
          "internalType": "address",
          "name": "account",
          "type": "address"
        }
      ],
      "name": "isAdministrator",
      "outputs": [
        {
          "internalType": "bool",
          "name": "",
          "type": "bool"
        }
      ],
      "stateMutability": "view",
      "type": "function"
    },
    {
      "inputs": [
        {
          "internalType": "address",
          "name": "account",
          "type": "address"
        }
      ],
      "name": "isBlacklisted",
      "outputs": [
        {
          "internalType": "bool",
          "name": "",
          "type": "bool"
        }
      ],
      "stateMutability": "view",
      "type": "function"
    },
    {
      "inputs": [],
      "name": "name",
      "outputs": [
        {
          "internalType": "string",
          "name": "",
          "type": "string"
        }
      ],
      "stateMutability": "view",
      "type": "function"
    },
    {
      "inputs": [],
      "name": "pause",
      "outputs": [],
      "stateMutability": "nonpayable",
      "type": "function"
    },
    {
      "inputs": [],
      "name": "paused",
      "outputs": [
        {
          "internalType": "bool",
          "name": "",
          "type": "bool"
        }
      ],
      "stateMutability": "view",
      "type": "function"
    },
    {
      "inputs": [
        {
          "internalType": "address",
          "name": "tokenAddress",
          "type": "address"
        },
        {
          "internalType": "uint256",
          "name": "amount",
          "type": "uint256"
        }
      ],
      "name": "recoverTokens",
      "outputs": [],
      "stateMutability": "nonpayable",
      "type": "function"
    },
    {
      "inputs": [
        {
          "internalType": "address",
          "name": "account",
          "type": "address"
        },
        {
          "internalType": "bool",
          "name": "status",
          "type": "bool"
        }
      ],
      "name": "setAdministrator",
      "outputs": [],
      "stateMutability": "nonpayable",
      "type": "function"
    },
    {
      "inputs": [
        {
          "internalType": "address",
          "name": "account",
          "type": "address"
        },
        {
          "internalType": "bool",
          "name": "value",
          "type": "bool"
        }
      ],
      "name": "setBlacklist",
      "outputs": [],
      "stateMutability": "nonpayable",
      "type": "function"
    },
    {
      "inputs": [
        {
          "internalType": "uint256",
          "name": "amount",
          "type": "uint256"
        }
      ],
      "name": "setMaxTransferAmount",
      "outputs": [],
      "stateMutability": "nonpayable",
      "type": "function"
    },
    {
      "inputs": [
        {
          "internalType": "uint256",
          "name": "newRate",
          "type": "uint256"
        }
      ],
      "name": "setTransferTaxRate",
      "outputs": [],
      "stateMutability": "nonpayable",
      "type": "function"
    },
    {
      "inputs": [
        {
          "internalType": "address",
          "name": "newWallet",
          "type": "address"
        }
      ],
      "name": "setTreasuryWallet",
      "outputs": [],
      "stateMutability": "nonpayable",
      "type": "function"
    },
    {
      "inputs": [],
      "name": "symbol",
      "outputs": [
        {
          "internalType": "string",
          "name": "",
          "type": "string"
        }
      ],
      "stateMutability": "view",
      "type": "function"
    },
    {
      "inputs": [],
      "name": "totalSupply",
      "outputs": [
        {
          "internalType": "uint256",
          "name": "",
          "type": "uint256"
        }
      ],
      "stateMutability": "view",
      "type": "function"
    },
    {
      "inputs": [
        {
          "internalType": "address",
          "name": "to",
          "type": "address"
        },
        {
          "internalType": "uint256",
          "name": "amount",
          "type": "uint256"
        }
      ],
      "name": "transfer",
      "outputs": [
        {
          "internalType": "bool",
          "name": "",
          "type": "bool"
        }
      ],
      "stateMutability": "nonpayable",
      "type": "function"
    },
    {
      "inputs": [
        {
          "internalType": "address",
          "name": "from",
          "type": "address"
        },
        {
          "internalType": "address",
          "name": "to",
          "type": "address"
        },
        {
          "internalType": "uint256",
          "name": "amount",
          "type": "uint256"
        }
      ],
      "name": "transferFrom",
      "outputs": [
        {
          "internalType": "bool",
          "name": "",
          "type": "bool"
        }
      ],
      "stateMutability": "nonpayable",
      "type": "function"
    },
    {
      "inputs": [],
      "name": "unpause",
      "outputs": [],
      "stateMutability": "nonpayable",
      "type": "function"
    }
  ],
  "bytecode": "0x60806040523480156200001157600080fd5b506040518060400160405280600a81526020017f4d617461476c6f62616c000000000000000000000000000000000000000000008152506040518060400160405280600481526020017f4d4154410000000000000000000000000000000000000000000000000000000081525081600390816200008f919062000ac1565b508060049081620000a1919062000ac1565b5050506000600560006101000a81548160ff02191690831515021790555033600560016101000a81548173ffffffffffffffffffffffffffffffffffffffff021916908373ffffffffffffffffffffffffffffffffffffffff1602179055506001600660003373ffffffffffffffffffffffffffffffffffffffff1673ffffffffffffffffffffffffffffffffffffffff16815260200190815260200160002060006101000a81548160ff02191690831515021790555062000199336200016d620001fe60201b60201c565b600a6200017b919062000d38565b6402540be4006200018d919062000d89565b6200020760201b60201c565b620001a96200037460201b60201c565b60088190555033600960006101000a81548173ffffffffffffffffffffffffffffffffffffffff021916908373ffffffffffffffffffffffffffffffffffffffff1602179055506000600a81905550620010b8565b60006012905090565b600073ffffffffffffffffffffffffffffffffffffffff168273ffffffffffffffffffffffffffffffffffffffff160362000279576040517f08c379a0000000000000000000000000000000000000000000000000000000008152600401620002709062000e35565b60405180910390fd5b6200028d600083836200037e60201b60201c565b8060026000828254620002a1919062000e57565b92505081905550806000808473ffffffffffffffffffffffffffffffffffffffff1673ffffffffffffffffffffffffffffffffffffffff168152602001908152602001600020600082825401925050819055508173ffffffffffffffffffffffffffffffffffffffff16600073ffffffffffffffffffffffffffffffffffffffff167fddf252ad1be2c89b69c2b068fc378daa952ba7f163c4a11628f55a4df523b3ef8360405162000354919062000ea3565b60405180910390a36200037060008383620007d160201b60201c565b5050565b6000600254905090565b6200038e620007d660201b60201c565b600760008473ffffffffffffffffffffffffffffffffffffffff1673ffffffffffffffffffffffffffffffffffffffff16815260200190815260200160002060009054906101000a900460ff16158015620004335750600760008373ffffffffffffffffffffffffffffffffffffffff1673ffffffffffffffffffffffffffffffffffffffff16815260200190815260200160002060009054906101000a900460ff16155b62000475576040517f08c379a00000000000000000000000000000000000000000000000000000000081526004016200046c9062000f10565b60405180910390fd5b600660008473ffffffffffffffffffffffffffffffffffffffff1673ffffffffffffffffffffffffffffffffffffffff16815260200190815260200160002060009054906101000a900460ff161580156200051e5750600560019054906101000a900473ffffffffffffffffffffffffffffffffffffffff1673ffffffffffffffffffffffffffffffffffffffff168373ffffffffffffffffffffffffffffffffffffffff1614155b8015620005755750600660008373ffffffffffffffffffffffffffffffffffffffff1673ffffffffffffffffffffffffffffffffffffffff16815260200190815260200160002060009054906101000a900460ff16155b8015620005d05750600560019054906101000a900473ffffffffffffffffffffffffffffffffffffffff1673ffffffffffffffffffffffffffffffffffffffff168273ffffffffffffffffffffffffffffffffffffffff1614155b156200061f576008548111156200061e576040517f08c379a0000000000000000000000000000000000000000000000000000000008152600401620006159062000f82565b60405180910390fd5b5b6000600a541180156200067c5750600660008473ffffffffffffffffffffffffffffffffffffffff1673ffffffffffffffffffffffffffffffffffffffff16815260200190815260200160002060009054906101000a900460ff16155b8015620006d75750600560019054906101000a900473ffffffffffffffffffffffffffffffffffffffff1673ffffffffffffffffffffffffffffffffffffffff168373ffffffffffffffffffffffffffffffffffffffff1614155b15620007b9576000612710600a5483620006f2919062000d89565b620006fe919062000fd3565b90506000811115620007a7576200073f84600960009054906101000a900473ffffffffffffffffffffffffffffffffffffffff16836200082b60201b60201c565b8273ffffffffffffffffffffffffffffffffffffffff168473ffffffffffffffffffffffffffffffffffffffff167f5d37fd68fe66745a199f8c603e00ae02183f4aabb8ec0089589b0b40c4ead5e1836040516200079e919062000ea3565b60405180910390a35b8082620007b591906200100b565b9150505b620007cc8383836200082b60201b60201c565b505050565b505050565b620007e66200083060201b60201c565b1562000829576040517f08c379a0000000000000000000000000000000000000000000000000000000008152600401620008209062001096565b60405180910390fd5b565b505050565b6000600560009054906101000a900460ff16905090565b600081519050919050565b7f4e487b7100000000000000000000000000000000000000000000000000000000600052604160045260246000fd5b7f4e487b7100000000000000000000000000000000000000000000000000000000600052602260045260246000fd5b60006002820490506001821680620008c957607f821691505b602082108103620008df57620008de62000881565b5b50919050565b60008190508160005260206000209050919050565b60006020601f8301049050919050565b600082821b905092915050565b600060088302620009497fffffffffffffffffffffffffffffffffffffffffffffffffffffffffffffffff826200090a565b6200095586836200090a565b95508019841693508086168417925050509392505050565b6000819050919050565b6000819050919050565b6000620009a26200099c62000996846200096d565b62000977565b6200096d565b9050919050565b6000819050919050565b620009be8362000981565b620009d6620009cd82620009a9565b84845462000917565b825550505050565b600090565b620009ed620009de565b620009fa818484620009b3565b505050565b5b8181101562000a225762000a16600082620009e3565b60018101905062000a00565b5050565b601f82111562000a715762000a3b81620008e5565b62000a4684620008fa565b8101602085101562000a56578190505b62000a6e62000a6585620008fa565b830182620009ff565b50505b505050565b600082821c905092915050565b600062000a966000198460080262000a76565b1980831691505092915050565b600062000ab1838362000a83565b9150826002028217905092915050565b62000acc8262000847565b67ffffffffffffffff81111562000ae85762000ae762000852565b5b62000af48254620008b0565b62000b0182828562000a26565b600060209050601f83116001811462000b39576000841562000b24578287015190505b62000b30858262000aa3565b86555062000ba0565b601f19841662000b4986620008e5565b60005b8281101562000b735784890151825560018201915060208501945060208101905062000b4c565b8683101562000b93578489015162000b8f601f89168262000a83565b8355505b6001600288020188555050505b505050505050565b7f4e487b7100000000000000000000000000000000000000000000000000000000600052601160045260246000fd5b60008160011c9050919050565b6000808291508390505b600185111562000c365780860481111562000c0e5762000c0d62000ba8565b5b600185161562000c1e5780820291505b808102905062000c2e8562000bd7565b945062000bee565b94509492505050565b60008262000c51576001905062000d24565b8162000c61576000905062000d24565b816001811462000c7a576002811462000c855762000cbb565b600191505062000d24565b60ff84111562000c9a5762000c9962000ba8565b5b8360020a91508482111562000cb45762000cb362000ba8565b5b5062000d24565b5060208310610133831016604e8410600b841016171562000cf55782820a90508381111562000cef5762000cee62000ba8565b5b62000d24565b62000d04848484600162000be4565b9250905081840481111562000d1e5762000d1d62000ba8565b5b81810290505b9392505050565b600060ff82169050919050565b600062000d45826200096d565b915062000d528362000d2b565b925062000d817fffffffffffffffffffffffffffffffffffffffffffffffffffffffffffffffff848462000c3f565b905092915050565b600062000d96826200096d565b915062000da3836200096d565b925082820262000db3816200096d565b9150828204841483151762000dcd5762000dcc62000ba8565b5b5092915050565b600082825260208201905092915050565b7f45524332303a206d696e7420746f20746865207a65726f206164647265737300600082015250565b600062000e1d601f8362000dd4565b915062000e2a8262000de5565b602082019050919050565b6000602082019050818103600083015262000e508162000e0e565b9050919050565b600062000e64826200096d565b915062000e71836200096d565b925082820190508082111562000e8c5762000e8b62000ba8565b5b92915050565b62000e9d816200096d565b82525050565b600060208201905062000eba600083018462000e92565b92915050565b7f4164647265737320697320626c61636b6c697374656400000000000000000000600082015250565b600062000ef860168362000dd4565b915062000f058262000ec0565b602082019050919050565b6000602082019050818103600083015262000f2b8162000ee9565b9050919050565b7f5472616e7366657220616d6f756e742065786365656473206c696d6974000000600082015250565b600062000f6a601d8362000dd4565b915062000f778262000f32565b602082019050919050565b6000602082019050818103600083015262000f9d8162000f5b565b9050919050565b7f4e487b7100000000000000000000000000000000000000000000000000000000600052601260045260246000fd5b600062000fe0826200096d565b915062000fed836200096d565b925082620010005762000fff62000fa4565b5b828204905092915050565b600062001018826200096d565b915062001025836200096d565b925082820390508181111562001040576200103f62000ba8565b5b92915050565b7f5061757361626c653a2070617573656400000000000000000000000000000000600082015250565b60006200107e60108362000dd4565b91506200108b8262001046565b602082019050919050565b60006020820190508181036000830152620010b1816200106f565b9050919050565b6137cc80620010c86000396000f3fe608060405234801561001057600080fd5b50600436106101da5760003560e01c806376be15851161010457806395d89b41116100a2578063d5f3948811610071578063d5f3948814610541578063dd62ed3e1461055f578063f036452a1461058f578063fe575a87146105ad576101da565b806395d89b41146104a7578063a457c2d7146104c5578063a8602fea146104f5578063a9059cbb14610511576101da565b806387c95058116100de57806387c950581461043757806388d63aac1461045357806388d695b21461046f5780638bf554091461048b576101da565b806376be1585146103e157806379cc6790146104115780638456cb591461042d576101da565b80632c035b741161017c5780633f4ba83a1161014b5780633f4ba83a1461036d57806342966c68146103775780635c975abb1461039357806370a08231146103b1576101da565b80632c035b74146102e3578063313ce5671461030157806331e0dec11461031f578063395093511461033d576101da565b80630a2eb301116101b85780630a2eb30114610249578063153b0d1e1461027957806318160ddd1461029557806323b872dd146102b3576101da565b8063069c9fae146101df57806306fdde03146101fb578063095ea7b314610219575b600080fd5b6101f960048036038101906101f491906125a3565b6105dd565b005b6102036107fa565b6040516102109190612673565b60405180910390f35b610233600480360381019061022e91906125a3565b61088c565b60405161024091906126b0565b60405180910390f35b610263600480360381019061025e91906126cb565b6108af565b60405161027091906126b0565b60405180910390f35b610293600480360381019061028e9190612724565b610905565b005b61029d610b79565b6040516102aa9190612773565b60405180910390f35b6102cd60048036038101906102c8919061278e565b610b83565b6040516102da91906126b0565b60405180910390f35b6102eb610bb2565b6040516102f891906127f0565b60405180910390f35b610309610bdc565b6040516103169190612827565b60405180910390f35b610327610be5565b6040516103349190612773565b60405180910390f35b610357600480360381019061035291906125a3565b610bef565b60405161036491906126b0565b60405180910390f35b610375610c26565b005b610391600480360381019061038c9190612842565b610d14565b005b61039b610d28565b6040516103a891906126b0565b60405180910390f35b6103cb60048036038101906103c691906126cb565b610d3f565b6040516103d89190612773565b60405180910390f35b6103fb60048036038101906103f691906126cb565b610d87565b60405161040891906126b0565b60405180910390f35b61042b600480360381019061042691906125a3565b610da7565b005b610435610dc7565b005b610451600480360381019061044c9190612724565b610eb5565b005b61046d60048036038101906104689190612842565b61107e565b005b6104896004803603810190610484919061292a565b611194565b005b6104a560048036038101906104a09190612842565b6113b7565b005b6104af61151f565b6040516104bc9190612673565b60405180910390f35b6104df60048036038101906104da91906125a3565b6115b1565b6040516104ec91906126b0565b60405180910390f35b61050f600480360381019061050a91906126cb565b611628565b005b61052b600480360381019061052691906125a3565b6117ae565b60405161053891906126b0565b60405180910390f35b6105496117d1565b60405161055691906127f0565b60405180910390f35b610579600480360381019061057491906129ab565b6117f7565b6040516105869190612773565b60405180910390f35b61059761187e565b6040516105a49190612773565b60405180910390f35b6105c760048036038101906105c291906126cb565b611888565b6040516105d491906126b0565b60405180910390f35b600560019054906101000a900473ffffffffffffffffffffffffffffffffffffffff1673ffffffffffffffffffffffffffffffffffffffff163373ffffffffffffffffffffffffffffffffffffffff161461066d576040517f08c379a000000000000000000000000000000000000000000000000000000000815260040161066490612a37565b60405180910390fd5b3073ffffffffffffffffffffffffffffffffffffffff168273ffffffffffffffffffffffffffffffffffffffff1603610710576106cc600960009054906101000a900473ffffffffffffffffffffffffffffffffffffffff16826117ae565b61070b576040517f08c379a000000000000000000000000000000000000000000000000000000000815260040161070290612aa3565b60405180910390fd5b6107f6565b60008290508073ffffffffffffffffffffffffffffffffffffffff1663a9059cbb600960009054906101000a900473ffffffffffffffffffffffffffffffffffffffff16846040518363ffffffff1660e01b8152600401610772929190612ac3565b6020604051808303816000875af1158015610791573d6000803e3d6000fd5b505050506040513d601f19601f820116820180604052508101906107b59190612b01565b6107f4576040517f08c379a00000000000000000000000000000000000000000000000000000000081526004016107eb90612aa3565b60405180910390fd5b505b5050565b60606003805461080990612b5d565b80601f016020809104026020016040519081016040528092919081815260200182805461083590612b5d565b80156108825780601f1061085757610100808354040283529160200191610882565b820191906000526020600020905b81548152906001019060200180831161086557829003601f168201915b5050505050905090565b6000806108976118de565b90506108a48185856118e6565b600191505092915050565b6000600660008373ffffffffffffffffffffffffffffffffffffffff1673ffffffffffffffffffffffffffffffffffffffff16815260200190815260200160002060009054906101000a900460ff169050919050565b600660003373ffffffffffffffffffffffffffffffffffffffff1673ffffffffffffffffffffffffffffffffffffffff16815260200190815260200160002060009054906101000a900460ff16806109aa5750600560019054906101000a900473ffffffffffffffffffffffffffffffffffffffff1673ffffffffffffffffffffffffffffffffffffffff163373ffffffffffffffffffffffffffffffffffffffff16145b6109e9576040517f08c379a00000000000000000000000000000000000000000000000000000000081526004016109e090612bda565b60405180910390fd5b600560019054906101000a900473ffffffffffffffffffffffffffffffffffffffff1673ffffffffffffffffffffffffffffffffffffffff168273ffffffffffffffffffffffffffffffffffffffff1614158015610a915750600660008373ffffffffffffffffffffffffffffffffffffffff1673ffffffffffffffffffffffffffffffffffffffff16815260200190815260200160002060009054906101000a900460ff16155b610ad0576040517f08c379a0000000000000000000000000000000000000000000000000000000008152600401610ac790612c6c565b60405180910390fd5b80600760008473ffffffffffffffffffffffffffffffffffffffff1673ffffffffffffffffffffffffffffffffffffffff16815260200190815260200160002060006101000a81548160ff0219169083151502179055508173ffffffffffffffffffffffffffffffffffffffff167fcf3473b85df1594d47b6958f29a32bea0abff9dd68296f7bf33443646793cfd882604051610b6d91906126b0565b60405180910390a25050565b6000600254905090565b600080610b8e6118de565b9050610b9b858285611aaf565b610ba6858585611b3b565b60019150509392505050565b6000600960009054906101000a900473ffffffffffffffffffffffffffffffffffffffff16905090565b60006012905090565b6000600a54905090565b600080610bfa6118de565b9050610c1b818585610c0c85896117f7565b610c169190612cbb565b6118e6565b600191505092915050565b600660003373ffffffffffffffffffffffffffffffffffffffff1673ffffffffffffffffffffffffffffffffffffffff16815260200190815260200160002060009054906101000a900460ff1680610ccb5750600560019054906101000a900473ffffffffffffffffffffffffffffffffffffffff1673ffffffffffffffffffffffffffffffffffffffff163373ffffffffffffffffffffffffffffffffffffffff16145b610d0a576040517f08c379a0000000000000000000000000000000000000000000000000000000008152600401610d0190612bda565b60405180910390fd5b610d12611db1565b565b610d25610d1f6118de565b82611e14565b50565b6000600560009054906101000a900460ff16905090565b60008060008373ffffffffffffffffffffffffffffffffffffffff1673ffffffffffffffffffffffffffffffffffffffff168152602001908152602001600020549050919050565b60066020528060005260406000206000915054906101000a900460ff1681565b610db982610db36118de565b83611aaf565b610dc38282611e14565b5050565b600660003373ffffffffffffffffffffffffffffffffffffffff1673ffffffffffffffffffffffffffffffffffffffff16815260200190815260200160002060009054906101000a900460ff1680610e6c5750600560019054906101000a900473ffffffffffffffffffffffffffffffffffffffff1673ffffffffffffffffffffffffffffffffffffffff163373ffffffffffffffffffffffffffffffffffffffff16145b610eab576040517f08c379a0000000000000000000000000000000000000000000000000000000008152600401610ea290612bda565b60405180910390fd5b610eb3611fe1565b565b600560019054906101000a900473ffffffffffffffffffffffffffffffffffffffff1673ffffffffffffffffffffffffffffffffffffffff163373ffffffffffffffffffffffffffffffffffffffff1614610f45576040517f08c379a0000000000000000000000000000000000000000000000000000000008152600401610f3c90612a37565b60405180910390fd5b600560019054906101000a900473ffffffffffffffffffffffffffffffffffffffff1673ffffffffffffffffffffffffffffffffffffffff168273ffffffffffffffffffffffffffffffffffffffff1603610fd5576040517f08c379a0000000000000000000000000000000000000000000000000000000008152600401610fcc90612d3b565b60405180910390fd5b80600660008473ffffffffffffffffffffffffffffffffffffffff1673ffffffffffffffffffffffffffffffffffffffff16815260200190815260200160002060006101000a81548160ff0219169083151502179055508173ffffffffffffffffffffffffffffffffffffffff167f184fbff1cd7a3d3af1fd538263d79328e135402c70c68de9b795ee4fcc0440bc8260405161107291906126b0565b60405180910390a25050565b600560019054906101000a900473ffffffffffffffffffffffffffffffffffffffff1673ffffffffffffffffffffffffffffffffffffffff163373ffffffffffffffffffffffffffffffffffffffff161461110e576040517f08c379a000000000000000000000000000000000000000000000000000000000815260040161110590612a37565b60405180910390fd5b6103e8811115611153576040517f08c379a000000000000000000000000000000000000000000000000000000000815260040161114a90612da7565b60405180910390fd5b80600a819055507f23346b479f53734b84239461c71fc8ae2608c08a5908f5c7db6d6ad3d9b5ea48816040516111899190612773565b60405180910390a150565b600660003373ffffffffffffffffffffffffffffffffffffffff1673ffffffffffffffffffffffffffffffffffffffff16815260200190815260200160002060009054906101000a900460ff16806112395750600560019054906101000a900473ffffffffffffffffffffffffffffffffffffffff1673ffffffffffffffffffffffffffffffffffffffff163373ffffffffffffffffffffffffffffffffffffffff16145b611278576040517f08c379a000000000000000000000000000000000000000000000000000000000815260040161126f90612bda565b60405180910390fd5b8181905084849050146112c0576040517f08c379a00000000000000000000000000000000000000000000000000000000081526004016112b790612e13565b60405180910390fd5b60008484905011611306576040517f08c379a00000000000000000000000000000000000000000000000000000000081526004016112fd90612e7f565b60405180910390fd5b60005b848490508110156113b05761135e85858381811061132a57611329612e9f565b5b905060200201602081019061133f91906126cb565b84848481811061135257611351612e9f565b5b905060200201356117ae565b61139d576040517f08c379a000000000000000000000000000000000000000000000000000000000815260040161139490612aa3565b60405180910390fd5b80806113a890612ece565b915050611309565b5050505050565b600660003373ffffffffffffffffffffffffffffffffffffffff1673ffffffffffffffffffffffffffffffffffffffff16815260200190815260200160002060009054906101000a900460ff168061145c5750600560019054906101000a900473ffffffffffffffffffffffffffffffffffffffff1673ffffffffffffffffffffffffffffffffffffffff163373ffffffffffffffffffffffffffffffffffffffff16145b61149b576040517f08c379a000000000000000000000000000000000000000000000000000000000815260040161149290612bda565b60405180910390fd5b600081116114de576040517f08c379a00000000000000000000000000000000000000000000000000000000081526004016114d590612f62565b60405180910390fd5b806008819055507fb81a465c2b79d7b689b78d9aaf5a787dd386b73a952be0569f2fbc637aabb897816040516115149190612773565b60405180910390a150565b60606004805461152e90612b5d565b80601f016020809104026020016040519081016040528092919081815260200182805461155a90612b5d565b80156115a75780601f1061157c576101008083540402835291602001916115a7565b820191906000526020600020905b81548152906001019060200180831161158a57829003601f168201915b5050505050905090565b6000806115bc6118de565b905060006115ca82866117f7565b90508381101561160f576040517f08c379a000000000000000000000000000000000000000000000000000000000815260040161160690612ff4565b60405180910390fd5b61161c82868684036118e6565b60019250505092915050565b600560019054906101000a900473ffffffffffffffffffffffffffffffffffffffff1673ffffffffffffffffffffffffffffffffffffffff163373ffffffffffffffffffffffffffffffffffffffff16146116b8576040517f08c379a00000000000000000000000000000000000000000000000000000000081526004016116af90612a37565b60405180910390fd5b600073ffffffffffffffffffffffffffffffffffffffff168173ffffffffffffffffffffffffffffffffffffffff1603611727576040517f08c379a000000000000000000000000000000000000000000000000000000000815260040161171e90613086565b60405180910390fd5b80600960006101000a81548173ffffffffffffffffffffffffffffffffffffffff021916908373ffffffffffffffffffffffffffffffffffffffff1602179055508073ffffffffffffffffffffffffffffffffffffffff167f97c79b3848e51f57983ac89e4403452655c8d83ceba8199011de63a74f60d1a760405160405180910390a250565b6000806117b96118de565b90506117c6818585611b3b565b600191505092915050565b600560019054906101000a900473ffffffffffffffffffffffffffffffffffffffff1681565b6000600160008473ffffffffffffffffffffffffffffffffffffffff1673ffffffffffffffffffffffffffffffffffffffff16815260200190815260200160002060008373ffffffffffffffffffffffffffffffffffffffff1673ffffffffffffffffffffffffffffffffffffffff16815260200190815260200160002054905092915050565b6000600854905090565b6000600760008373ffffffffffffffffffffffffffffffffffffffff1673ffffffffffffffffffffffffffffffffffffffff16815260200190815260200160002060009054906101000a900460ff169050919050565b600033905090565b600073ffffffffffffffffffffffffffffffffffffffff168373ffffffffffffffffffffffffffffffffffffffff1603611955576040517f08c379a000000000000000000000000000000000000000000000000000000000815260040161194c90613118565b60405180910390fd5b600073ffffffffffffffffffffffffffffffffffffffff168273ffffffffffffffffffffffffffffffffffffffff16036119c4576040517f08c379a00000000000000000000000000000000000000000000000000000000081526004016119bb906131aa565b60405180910390fd5b80600160008573ffffffffffffffffffffffffffffffffffffffff1673ffffffffffffffffffffffffffffffffffffffff16815260200190815260200160002060008473ffffffffffffffffffffffffffffffffffffffff1673ffffffffffffffffffffffffffffffffffffffff168152602001908152602001600020819055508173ffffffffffffffffffffffffffffffffffffffff168373ffffffffffffffffffffffffffffffffffffffff167f8c5be1e5ebec7d5bd14f71427d1e84f3dd0314c0f7b2291e5b200ac8c7c3b92583604051611aa29190612773565b60405180910390a3505050565b6000611abb84846117f7565b90507fffffffffffffffffffffffffffffffffffffffffffffffffffffffffffffffff8114611b355781811015611b27576040517f08c379a0000000000000000000000000000000000000000000000000000000008152600401611b1e90613216565b60405180910390fd5b611b3484848484036118e6565b5b50505050565b600073ffffffffffffffffffffffffffffffffffffffff168373ffffffffffffffffffffffffffffffffffffffff1603611baa576040517f08c379a0000000000000000000000000000000000000000000000000000000008152600401611ba1906132a8565b60405180910390fd5b600073ffffffffffffffffffffffffffffffffffffffff168273ffffffffffffffffffffffffffffffffffffffff1603611c19576040517f08c379a0000000000000000000000000000000000000000000000000000000008152600401611c109061333a565b60405180910390fd5b611c24838383612044565b60008060008573ffffffffffffffffffffffffffffffffffffffff1673ffffffffffffffffffffffffffffffffffffffff16815260200190815260200160002054905081811015611caa576040517f08c379a0000000000000000000000000000000000000000000000000000000008152600401611ca1906133cc565b60405180910390fd5b8181036000808673ffffffffffffffffffffffffffffffffffffffff1673ffffffffffffffffffffffffffffffffffffffff16815260200190815260200160002081905550816000808573ffffffffffffffffffffffffffffffffffffffff1673ffffffffffffffffffffffffffffffffffffffff168152602001908152602001600020600082825401925050819055508273ffffffffffffffffffffffffffffffffffffffff168473ffffffffffffffffffffffffffffffffffffffff167fddf252ad1be2c89b69c2b068fc378daa952ba7f163c4a11628f55a4df523b3ef84604051611d989190612773565b60405180910390a3611dab848484612468565b50505050565b611db961246d565b6000600560006101000a81548160ff0219169083151502179055507f5db9ee0a495bf2e6ff9c91a7834c1ba4fdd244a5e8aa4e537bd38aeae4b073aa611dfd6118de565b604051611e0a91906127f0565b60405180910390a1565b600073ffffffffffffffffffffffffffffffffffffffff168273ffffffffffffffffffffffffffffffffffffffff1603611e83576040517f08c379a0000000000000000000000000000000000000000000000000000000008152600401611e7a9061345e565b60405180910390fd5b611e8f82600083612044565b60008060008473ffffffffffffffffffffffffffffffffffffffff1673ffffffffffffffffffffffffffffffffffffffff16815260200190815260200160002054905081811015611f15576040517f08c379a0000000000000000000000000000000000000000000000000000000008152600401611f0c906134f0565b60405180910390fd5b8181036000808573ffffffffffffffffffffffffffffffffffffffff1673ffffffffffffffffffffffffffffffffffffffff1681526020019081526020016000208190555081600260008282540392505081905550600073ffffffffffffffffffffffffffffffffffffffff168373ffffffffffffffffffffffffffffffffffffffff167fddf252ad1be2c89b69c2b068fc378daa952ba7f163c4a11628f55a4df523b3ef84604051611fc89190612773565b60405180910390a3611fdc83600084612468565b505050565b611fe96124b6565b6001600560006101000a81548160ff0219169083151502179055507f62e78cea01bee320cd4e420270b5ea74000d11b0c9f74754ebdbfc544b05a25861202d6118de565b60405161203a91906127f0565b60405180910390a1565b61204c6124b6565b600760008473ffffffffffffffffffffffffffffffffffffffff1673ffffffffffffffffffffffffffffffffffffffff16815260200190815260200160002060009054906101000a900460ff161580156120f05750600760008373ffffffffffffffffffffffffffffffffffffffff1673ffffffffffffffffffffffffffffffffffffffff16815260200190815260200160002060009054906101000a900460ff16155b61212f576040517f08c379a00000000000000000000000000000000000000000000000000000000081526004016121269061355c565b60405180910390fd5b600660008473ffffffffffffffffffffffffffffffffffffffff1673ffffffffffffffffffffffffffffffffffffffff16815260200190815260200160002060009054906101000a900460ff161580156121d75750600560019054906101000a900473ffffffffffffffffffffffffffffffffffffffff1673ffffffffffffffffffffffffffffffffffffffff168373ffffffffffffffffffffffffffffffffffffffff1614155b801561222d5750600660008373ffffffffffffffffffffffffffffffffffffffff1673ffffffffffffffffffffffffffffffffffffffff16815260200190815260200160002060009054906101000a900460ff16155b80156122875750600560019054906101000a900473ffffffffffffffffffffffffffffffffffffffff1673ffffffffffffffffffffffffffffffffffffffff168273ffffffffffffffffffffffffffffffffffffffff1614155b156122d2576008548111156122d1576040517f08c379a00000000000000000000000000000000000000000000000000000000081526004016122c8906135c8565b60405180910390fd5b5b6000600a5411801561232e5750600660008473ffffffffffffffffffffffffffffffffffffffff1673ffffffffffffffffffffffffffffffffffffffff16815260200190815260200160002060009054906101000a900460ff16155b80156123885750600560019054906101000a900473ffffffffffffffffffffffffffffffffffffffff1673ffffffffffffffffffffffffffffffffffffffff168373ffffffffffffffffffffffffffffffffffffffff1614155b15612458576000612710600a54836123a091906135e8565b6123aa9190613659565b90506000811115612448576123e284600960009054906101000a900473ffffffffffffffffffffffffffffffffffffffff1683612500565b8273ffffffffffffffffffffffffffffffffffffffff168473ffffffffffffffffffffffffffffffffffffffff167f5d37fd68fe66745a199f8c603e00ae02183f4aabb8ec0089589b0b40c4ead5e18360405161243f9190612773565b60405180910390a35b8082612454919061368a565b9150505b612463838383612500565b505050565b505050565b612475610d28565b6124b4576040517f08c379a00000000000000000000000000000000000000000000000000000000081526004016124ab9061370a565b60405180910390fd5b565b6124be610d28565b156124fe576040517f08c379a00000000000000000000000000000000000000000000000000000000081526004016124f590613776565b60405180910390fd5b565b505050565b600080fd5b600080fd5b600073ffffffffffffffffffffffffffffffffffffffff82169050919050565b600061253a8261250f565b9050919050565b61254a8161252f565b811461255557600080fd5b50565b60008135905061256781612541565b92915050565b6000819050919050565b6125808161256d565b811461258b57600080fd5b50565b60008135905061259d81612577565b92915050565b600080604083850312156125ba576125b9612505565b5b60006125c885828601612558565b92505060206125d98582860161258e565b9150509250929050565b600081519050919050565b600082825260208201905092915050565b60005b8381101561261d578082015181840152602081019050612602565b60008484015250505050565b6000601f19601f8301169050919050565b6000612645826125e3565b61264f81856125ee565b935061265f8185602086016125ff565b61266881612629565b840191505092915050565b6000602082019050818103600083015261268d818461263a565b905092915050565b60008115159050919050565b6126aa81612695565b82525050565b60006020820190506126c560008301846126a1565b92915050565b6000602082840312156126e1576126e0612505565b5b60006126ef84828501612558565b91505092915050565b61270181612695565b811461270c57600080fd5b50565b60008135905061271e816126f8565b92915050565b6000806040838503121561273b5761273a612505565b5b600061274985828601612558565b925050602061275a8582860161270f565b9150509250929050565b61276d8161256d565b82525050565b60006020820190506127886000830184612764565b92915050565b6000806000606084860312156127a7576127a6612505565b5b60006127b586828701612558565b93505060206127c686828701612558565b92505060406127d78682870161258e565b9150509250925092565b6127ea8161252f565b82525050565b600060208201905061280560008301846127e1565b92915050565b600060ff82169050919050565b6128218161280b565b82525050565b600060208201905061283c6000830184612818565b92915050565b60006020828403121561285857612857612505565b5b60006128668482850161258e565b91505092915050565b600080fd5b600080fd5b600080fd5b60008083601f8401126128945761289361286f565b5b8235905067ffffffffffffffff8111156128b1576128b0612874565b5b6020830191508360208202830111156128cd576128cc612879565b5b9250929050565b60008083601f8401126128ea576128e961286f565b5b8235905067ffffffffffffffff81111561290757612906612874565b5b60208301915083602082028301111561292357612922612879565b5b9250929050565b6000806000806040858703121561294457612943612505565b5b600085013567ffffffffffffffff8111156129625761296161250a565b5b61296e8782880161287e565b9450945050602085013567ffffffffffffffff8111156129915761299061250a565b5b61299d878288016128d4565b925092505092959194509250565b600080604083850312156129c2576129c1612505565b5b60006129d085828601612558565b92505060206129e185828601612558565b9150509250929050565b7f43616c6c6572206973206e6f7420746865206465706c6f796572000000000000600082015250565b6000612a21601a836125ee565b9150612a2c826129eb565b602082019050919050565b60006020820190508181036000830152612a5081612a14565b9050919050565b7f5472616e73666572206661696c65640000000000000000000000000000000000600082015250565b6000612a8d600f836125ee565b9150612a9882612a57565b602082019050919050565b60006020820190508181036000830152612abc81612a80565b9050919050565b6000604082019050612ad860008301856127e1565b612ae56020830184612764565b9392505050565b600081519050612afb816126f8565b92915050565b600060208284031215612b1757612b16612505565b5b6000612b2584828501612aec565b91505092915050565b7f4e487b7100000000000000000000000000000000000000000000000000000000600052602260045260246000fd5b60006002820490506001821680612b7557607f821691505b602082108103612b8857612b87612b2e565b5b50919050565b7f43616c6c6572206973206e6f7420616e2061646d696e6973747261746f720000600082015250565b6000612bc4601e836125ee565b9150612bcf82612b8e565b602082019050919050565b60006020820190508181036000830152612bf381612bb7565b9050919050565b7f43616e6e6f7420626c61636b6c6973742070726976696c65676564206164647260008201527f6573736573000000000000000000000000000000000000000000000000000000602082015250565b6000612c566025836125ee565b9150612c6182612bfa565b604082019050919050565b60006020820190508181036000830152612c8581612c49565b9050919050565b7f4e487b7100000000000000000000000000000000000000000000000000000000600052601160045260246000fd5b6000612cc68261256d565b9150612cd18361256d565b9250828201905080821115612ce957612ce8612c8c565b5b92915050565b7f43616e6e6f74206d6f64696679206465706c6f79657220737461747573000000600082015250565b6000612d25601d836125ee565b9150612d3082612cef565b602082019050919050565b60006020820190508181036000830152612d5481612d18565b9050919050565b7f54617820726174652063616e6e6f742065786365656420313025000000000000600082015250565b6000612d91601a836125ee565b9150612d9c82612d5b565b602082019050919050565b60006020820190508181036000830152612dc081612d84565b9050919050565b7f417272617973206c656e677468206d69736d6174636800000000000000000000600082015250565b6000612dfd6016836125ee565b9150612e0882612dc7565b602082019050919050565b60006020820190508181036000830152612e2c81612df0565b9050919050565b7f456d707479206172726179730000000000000000000000000000000000000000600082015250565b6000612e69600c836125ee565b9150612e7482612e33565b602082019050919050565b60006020820190508181036000830152612e9881612e5c565b9050919050565b7f4e487b7100000000000000000000000000000000000000000000000000000000600052603260045260246000fd5b6000612ed98261256d565b91507fffffffffffffffffffffffffffffffffffffffffffffffffffffffffffffffff8203612f0b57612f0a612c8c565b5b600182019050919050565b7f416d6f756e74206d7573742062652067726561746572207468616e2030000000600082015250565b6000612f4c601d836125ee565b9150612f5782612f16565b602082019050919050565b60006020820190508181036000830152612f7b81612f3f565b9050919050565b7f45524332303a2064656372656173656420616c6c6f77616e63652062656c6f7760008201527f207a65726f000000000000000000000000000000000000000000000000000000602082015250565b6000612fde6025836125ee565b9150612fe982612f82565b604082019050919050565b6000602082019050818103600083015261300d81612fd1565b9050919050565b7f4e65772077616c6c65742063616e6e6f74206265207a65726f2061646472657360008201527f7300000000000000000000000000000000000000000000000000000000000000602082015250565b60006130706021836125ee565b915061307b82613014565b604082019050919050565b6000602082019050818103600083015261309f81613063565b9050919050565b7f45524332303a20617070726f76652066726f6d20746865207a65726f2061646460008201527f7265737300000000000000000000000000000000000000000000000000000000602082015250565b60006131026024836125ee565b915061310d826130a6565b604082019050919050565b60006020820190508181036000830152613131816130f5565b9050919050565b7f45524332303a20617070726f766520746f20746865207a65726f20616464726560008201527f7373000000000000000000000000000000000000000000000000000000000000602082015250565b60006131946022836125ee565b915061319f82613138565b604082019050919050565b600060208201905081810360008301526131c381613187565b9050919050565b7f45524332303a20696e73756666696369656e7420616c6c6f77616e6365000000600082015250565b6000613200601d836125ee565b915061320b826131ca565b602082019050919050565b6000602082019050818103600083015261322f816131f3565b9050919050565b7f45524332303a207472616e736665722066726f6d20746865207a65726f20616460008201527f6472657373000000000000000000000000000000000000000000000000000000602082015250565b60006132926025836125ee565b915061329d82613236565b604082019050919050565b600060208201905081810360008301526132c181613285565b9050919050565b7f45524332303a207472616e7366657220746f20746865207a65726f206164647260008201527f6573730000000000000000000000000000000000000000000000000000000000602082015250565b60006133246023836125ee565b915061332f826132c8565b604082019050919050565b6000602082019050818103600083015261335381613317565b9050919050565b7f45524332303a207472616e7366657220616d6f756e742065786365656473206260008201527f616c616e63650000000000000000000000000000000000000000000000000000602082015250565b60006133b66026836125ee565b91506133c18261335a565b604082019050919050565b600060208201905081810360008301526133e5816133a9565b9050919050565b7f45524332303a206275726e2066726f6d20746865207a65726f2061646472657360008201527f7300000000000000000000000000000000000000000000000000000000000000602082015250565b60006134486021836125ee565b9150613453826133ec565b604082019050919050565b600060208201905081810360008301526134778161343b565b9050919050565b7f45524332303a206275726e20616d6f756e7420657863656564732062616c616e60008201527f6365000000000000000000000000000000000000000000000000000000000000602082015250565b60006134da6022836125ee565b91506134e58261347e565b604082019050919050565b60006020820190508181036000830152613509816134cd565b9050919050565b7f4164647265737320697320626c61636b6c697374656400000000000000000000600082015250565b60006135466016836125ee565b915061355182613510565b602082019050919050565b6000602082019050818103600083015261357581613539565b9050919050565b7f5472616e7366657220616d6f756e742065786365656473206c696d6974000000600082015250565b60006135b2601d836125ee565b91506135bd8261357c565b602082019050919050565b600060208201905081810360008301526135e1816135a5565b9050919050565b60006135f38261256d565b91506135fe8361256d565b925082820261360c8161256d565b9150828204841483151761362357613622612c8c565b5b5092915050565b7f4e487b7100000000000000000000000000000000000000000000000000000000600052601260045260246000fd5b60006136648261256d565b915061366f8361256d565b92508261367f5761367e61362a565b5b828204905092915050565b60006136958261256d565b91506136a08361256d565b92508282039050818111156136b8576136b7612c8c565b5b92915050565b7f5061757361626c653a206e6f7420706175736564000000000000000000000000600082015250565b60006136f46014836125ee565b91506136ff826136be565b602082019050919050565b60006020820190508181036000830152613723816136e7565b9050919050565b7f5061757361626c653a2070617573656400000000000000000000000000000000600082015250565b60006137606010836125ee565b915061376b8261372a565b602082019050919050565b6000602082019050818103600083015261378f81613753565b905091905056fea2646970667358221220543b0ed166a29e733bf0c2710355736b66776e40c1b37f50e022a07ee762e91064736f6c63430008140033",
  "linkReferences": {},
  "deployedLinkReferences": {}
}